:0200000089294C
:10000800FF00030E8301B1000A08B2008A017008DC
:10001800A4007108A3007208A2007308A100740864
:10002800A0000B1D1E28F8308100AF0A0319B00A82
:10003800FB308B050C1D47282B08031930282A088C
:10004800F000F1017008960029089500AB0109300D
:1000580097008F018E0145282908403CF3002A08A3
:10006800031C013E9C3CF4007408F000F101700888
:10007800960073089500083097000130AB008F0197
:100088008E01FB308C050C1C4B28FE308C05240897
:10009800F0002308F1002208F2002108F3002008EC
:1000A800F40032088A00310E8300FF0E7F0E09002B
:1000B800710DF80DF90D7408F8027508031C750F19
:1000C800F902F00DF10D0F30FC00710DF80DF90D6E
:1000D8007408701C7528F8027508031C750FF9025E
:1000E8007A28F80775080318750FF907F00DF10D50
:1000F800FC0B6928701886287408F8077508031817
:08010800750FF9070000080063
:10011000831203133808A5003908A600A701A80117
:060120000130AC000800F4
:10012600831203132230FC00F801F901FA01FB01E6
:10013600FC030319C9280310FB0CFA0CF90CF80C84
:10014600F30CF20CF10CF00C031C9B28FC030319B6
:10015600BB287408F80775080318750FF9077608A1
:100166000318760FFA0777080318770FFB079F28FF
:100176007408F80775080318750FF9077608031849
:0E018600760FFA0777080318770FFB070800BB
:1001940083120313AF01B00137083002031DD428C2
:0C01A40036082F020318D728CE280800C8
:1001B000831203132C08031DE2280130B80000301D
:1001C000B90088202508F0002608F1002708F20071
:1001D0002808F3006D30F4004E30F500C630F6000C
:1001E0004130F70093203930F5003030F600F70148
:1001F000F8017008F50771080318710FF607720807
:100200000318720FF70773080318730FF8077708BE
:10021000F0007808F1000030F81BFF30F200F30026
:10022000FF30F0057F30F1050030F205F30570086E
:10023000A5007108A6007208A7007308A8000800AE
:10024000831203137408003A031D2F297508003A1E
:10025000031D2F29FF30F0007F30F1008829831221
:100260000313FD01F901F80171087004031900344A
:1002700071087506FA00FA1BFD09FB01F51F4529F7
:10028000F409F509F40A0319F50AF11F4C29F009DC
:10029000F109F00A0319F10A71087504FA00FA1B52
:1002A00061295C207B187429FD1F0034F009F109D5
:1002B000F00A0319F10AF809F909F80A0319F90A09
:1002C0000034F51F7029F11B6C297108F9007008C2
:1002D000F800F101F0015429F101F001F00A0034B5
:1002E000F109F009FB0A5129F80A0319F90A7408FF
:1002F0007802031D542975087902031D5429F90158
:10030000F801F00A0319F10AF11F54290000FF3423
:020310000800E3
:10031200F830831203138100831688018312880147
:100322008316870183128701FF3083168600FF3010
:1003320083128600FF30860006080319A22988016D
:100342000F2A0608003A031D0F2AD8200730F400AE
:100352000030F50020217808F0007908F100700AD9
:10036200B50001308800B301350833020318D029E3
:10037200B401F03034020318CE2903308800013072
:10038200B6000030B700CA20013088000130B60044
:100392000030B700CA20B40ABA29B30AB5298F01BE
:1003A2008E010130AB000830970001309000203000
:1003B2008B0083160C15073083129600D0309500FF
:1003C200C030A9001230AA008430B6000330B70052
:1003D200CA206030A9000930AA008430B600033078
:1003E200B700CA208801B3013508330203180F2A67
:1003F200B401F030340203180D2A023088000130B3
:10040200B6000030B700CA2088010130B6000030C3
:10041200B700CA20B40AFA29B30AF5299B29102A7F
:02400E004A2F37
:00000001FF
